:020000040000FA
:100000000C9458000C9480000C9480000C94800098
:100010000C9480000C9480000C9480000C94800060
:100020000C9480000C9480000C9480000C94800050
:100030000C9480000C9480000C9480000C94800040
:100040000C940D0C0C9480000C9480000C94800097
:100050000C9480000C9480000C9480000C94800020
:100060000C94570C0C948000000000002500280020
:100070002B00040404040404040402020202020229
:10008000030303030303010204081020408001025C
:1000900004081020010204081020000000080002DB
:1000A0000100000304070000000000000000760DBE
:1000B00011241FBECFEFD8E0DEBFCDBF11E0A0E01E
:1000C000B1E0E2E4FFE102C005900D92A834B1076F
:1000D000D9F728E0A8E4B1E001C01D92A537B20726
:1000E000E1F710E0C8E5D0E004C02197FE010E94CE
:1000F000850FC735D107C9F70E94960D0C949F0F45
:100100000C94000090914B0880914A082FEF3FEF2C
:10011000981748F4E92FF0E0E65DF74F208130E0D2
:100120009F5F90934B08C901089590914B0880916F
:100130004A082FEF3FEF981748F4E92FF0E0E65D0B
:10014000F74F208130E09F5F90934B08C9010895DD
:10015000E0912608F0912708309729F010922308A3
:100160001092220809940895CF93DF93AC01E09197
:100170002408F09125083097F1F090914B08809178
:100180004A089817C0F090E0292F30E0261737076B
:1001900054F4D901A65DB74F240F351FE90128811A
:1001A0002C939F5FF1CF10924B0860934A08CB01CC
:1001B000DF91CF910994DF91CF91089580E991E08B
:1001C000089590E0FC01E656FF4F2491FC01EA57A8
:1001D000FF4F3491FC01EE58FF4FE491EE23C9F03C
:1001E000222339F0233001F1A8F4213019F1223013
:1001F00029F1F0E0EE0FFF1FE859FF4FA591B491F0
:100200008FB7F894EC91611126C030953E233C9352
:100210008FBF08952730A9F02830C9F0243049F75E
:10022000809180008F7D03C0809180008F778093C4
:100230008000DFCF84B58F7784BDDBCF84B58F7D21
:10024000FBCF8091B0008F778093B000D2CF8091A8
:10025000B0008F7DF9CF3E2BDACF3FB7F894809175
:10026000C1019091C201A091C301B091C40126B512
:10027000A89B05C02F3F19F00196A11DB11D3FBFDE
:10028000BA2FA92F982F8827BC01CD01620F711DAD
:10029000811D911D42E0660F771F881F991F4A95A7
:1002A000D1F708954F925F926F927F929F92AF9293
:1002B000BF92CF92DF92EF92FF920F931F93CF9353
:1002C000DF9300D01F92CDB7DEB7D82E80915F08A4
:1002D00090916008A0916108B0916208892B8A2BE7
:1002E0008B2BD9F00E942D010091580810915908CC
:1002F00020915A0830915B08601B710B820B930BA5
:1003000000915F08109160082091610830916208A7
:100310006017710782079307C8F20E942D0160934E
:1003200058087093590880935A0890935B08E0919D
:100330006708F0916808309759F040916308509130
:10034000640860916508709166088D2D0995D82E16
:10035000E0905608F09057084D2C512C712C612CD0
:10036000E114F10409F459C0D7011C96CC901C97F4
:1003700080915D0890915E088436910510F41C967A
:100380001C92D701ED91FC91A280B38019821A8250
:100390001B82DD2079F1F701369610E000E0219113
:1003A000222319F19280992001F130E050E040E0E1
:1003B0002F5F3F4F4F4F5F4FC301B2010E94190F94
:1003C0009B01AC01892D90E0B0E0A0E0BC01CD0123
:1003D0006F5F7F4F8F4F9F4F0E94190FA1E0B0E0DA
:1003E000AC0FBD1FA00FB11F8C930F5F1F4F0330C9
:1003F0001105A9F609811A812B81F70145855685DA
:1004000062817381C701F5010995D7011C96CC92D1
:100410001C971496ED90FC90A3CF80915408909176
:1004200055089C012F5F3F4F309355082093540887
:1004300049970CF44AC08FB7F89420914C0830913A
:100440004D0840914E0850914F088FBF8091500841
:1004500090915108A0915208B0915308281B390B74
:100460004A0B5B0B21F421E030E040E050E0E091EA
:100470005408F091550888EE93E0E89FB001E99F99
:10048000700DF89F700D1124072E000C880B990B2E
:100490000E943D0F30935E0820935D08109255082E
:1004A000109254082FB7F89480914C0890914D0801
:1004B000A0914E08B0914F082FBF809350089093A1
:1004C0005108A0935208B09353080F900F900F90CB
:1004D000DF91CF911F910F91FF90EF90DF90CF9020
:1004E000BF90AF909F907F906F905F904F900895D6
:1004F0001F93DC01FB017C9111965C911197129680
:100500001C91972F990F990F990F35E5292F239F4C
:10051000020E20E0211D1124822F672F6074472FC7
:10052000407277FD66C0611152C0411105C0922F23
:100530009095892F90E004C025E5280F90E08BEA84
:100540005F3F09F422C0552309F474C0509530E090
:10055000552329F0559F312D112451113F5F432F11
:100560004095582F549F050E50E0511D852F249F14
:10057000020E20E0211D592F549F050E50E0511D01
:10058000952F1124830F230F930F1F3FD9F030E0D5
:10059000112321F0119F312D09F03F5F332309F41E
:1005A0004DC0482F439F040E40E0411D842F239FE0
:1005B000020E20E0211D592F539F050E50E0511DC2
:1005C000952F11248083218392831F9108954111D7
:1005D0000BC0392F2AEA329F030E30E0311D11245F
:1005E0009BEA931B280FA5CF90E02095982F80E0E1
:1005F000A7CF611112C041110CC0392F2AEA329FD6
:10060000030E30E0311D11242BEA231B95E5930FD7
:10061000EECF922F909520E093CF411106C025E5B3
:10062000280F9BEA981B822FF6CF2AEA280F90E02A
:10063000932FF8CF9FEF2FEF8FEFA7CF90E020E021
:1006400080E0C0CF20917601260F3327331F21325F
:100650003105ECF420919A01FC0190E080E0243017
:1006600069F082E00895A09176012191AC014A5A87
:100670005E4FA40FB52FB11D2C930196861798F3EA
:1006800080917601680F6093760180E0089581E0A3
:10069000089510929A0181E080939C0110929B0131
:1006A00061E082E10E94E10061E083E10E94E100FB
:1006B000E9EBF0E080818E7F808380818D7F808375
:1006C00088E48093B80085E48093BC000895089581
:1006D000E0914B0880914A08E81730F4F0E0E65DBD
:1006E000F74F808190E008958FEF9FEF08958091FC
:1006F0004A0890914B08891B990B0895CF93DF937B
:10070000CB01EA01642F0E942203CE01DF91CF9139
:100710000895CF93DF931F92CDB7DEB7698361E071
:10072000CE0101960E94220381E090E00F90DF91BC
:10073000CF910895682F89E698E00C94890390E0A2
:1007400080E008950F931F93CF93DF9320914F0183
:100750002F5F322F377030934F0120FF2BC020E8DE
:1007600031FD2064347009F02062205FFC01EC014F
:10077000239600E011E06485662329F070E0C8014B
:100780000E94290F6F5F6187322F369F030E30E082
:10079000311D1124311110C01682662311F06150F1
:1007A00061873196EC17FD0731F7DF91CF911F91EB
:1007B0000F91089520E0D4CF31503683EECF0F93C0
:1007C0001F93CF93DF9320914E012F5F322F37700D
:1007D00030934E0120FF2BC020E831FD206434709F
:1007E00009F02062205FFC01EC01239600E011E09B
:1007F0006485662329F070E0C8010E94290F6F5FAD
:100800006187322F369F030E30E0311D11243111E4
:1008100010C01682662311F0615061873196EC1783
:10082000FD0731F7DF91CF911F910F91089520E0DF
:10083000D4CF31503683EECF4F925F927F928F921A
:100840009F92AF92BF92CF92DF92EF92FF920F935F
:100850001F93CF93DF932C01EB010E942D01F20136
:1008600027853089621B730B6A307105B0F3F894E9
:100870008A819B81181619060CF0CDC1E881F98197
:100880006BB1862E689483F83BB1377F3BB9DA842D
:100890008F812D2D281B822F2F834F85042E000C36
:1008A000550BAA81BB817D85FC84EE847F5FF39428
:1008B000E3949E819884B984AB841181C12C6C2D02
:1008C0000C2D2C2D2181112788942111280F08F43B
:1008D0002FEF8195889470FD120F1795889471FD04
:1008E000120F1795889472FD120F1795889473FD57
:1008F000120F1795889474FD120F1795889475FD43
:10090000120F1795889476FD120F1795889477FD2E
:10091000120F17958894622F7111612F8D0D162F6C
:10092000002C8BB800C000C017FF3BB920816627A0
:10093000889400C0002C3BB92111290F00C0002C65
:100940008BB800C000C016FF3BB908F42FEF91959B
:10095000889400C0002C3BB9F0FC620F00C0002C52
:100960008BB800C000C015FF3BB967958894F1FCB7
:10097000620F00C0002C3BB96795889400C0002C22
:100980008BB800C000C014FF3BB9F2FC620F679542
:10099000889400C0002C3BB9F3FC620F00C0002C0F
:1009A0008BB800C000C013FF3BB967958894F4FC76
:1009B000620F00C0002C3BB96795889400C0002CE2
:1009C0008BB800C000C012FF3BB9F5FC620F679501
:1009D000889400C0002C3BB9F6FC620F00C0002CCC
:1009E0008BB800C000C011FF3BB967958894F7FC35
:1009F000620F00C0002C3BB96795889400C0002CA2
:100A00008BB800C000C010FF3BB9122FF110162F99
:100A10009B0D00C0002C3BB900C000C0002C8BB85F
:100A200000C000C017FF3BB922816627889400C030
:100A3000002C3BB92111290D00C0002C8BB800C03F
:100A400000C016FF3BB908F42FEFE40FF51F00C0FC
:100A5000002C3BB9E0FC620F00C0002C8BB800C03A
:100A600000C015FF3BB967958894E1FC620F00C098
:100A7000002C3BB96795889400C0002C8BB800C04F
:100A800000C014FF3BB9E2FC620F6795889400C078
:100A9000002C3BB9E3FC620F00C0002C8BB800C0F7
:100AA00000C013FF3BB967958894E4FC620F00C057
:100AB000002C3BB96795889400C0002C8BB800C00F
:100AC00000C012FF3BB9E5FC620F6795889400C037
:100AD000002C3BB9E6FC620F00C0002C8BB800C0B4
:100AE00000C011FF3BB967958894E7FC620F00C016
:100AF000002C3BB96795889400C0002C8BB800C0CF
:100B000000C010FF3BB9122FE110162F919400C0C6
:100B1000002C3BB99A0C00C000C08BB800C000C0CC
:100B200017FF3BB921816627889400C0002C3BB990
:100B30002111280F00C0002C8BB800C000C016FF88
:100B40003BB908F42FEF8195889400C0002C3BB985
:100B500070FD620F00C0002C8BB800C000C015FFF4
:100B60003BB96795889471FD620F00C0002C3BB9BA
:100B70006795889400C0002C8BB800C000C014FF9B
:100B80003BB972FD620F6795889400C0002C3BB999
:100B900073FD620F00C0002C8BB800C000C013FFB3
:100BA0003BB96795889474FD620F00C0002C3BB977
:100BB0006795889400C0002C8BB800C000C012FF5D
:100BC0003BB975FD620F6795889400C0002C3BB956
:100BD00076FD620F00C0002C8BB800C000C011FF72
:100BE0003BB96795889477FD620F00C0002C3BB934
:100BF0006795889400C0002C8BB800C000C010FF1F
:100C00003BB9122F7111162F8D0D00C0002C3BB96E
:100C1000119709F086CE4A815B8120EE31E0DA013E
:100C20000E945F0FDC01CB01F4E0B695A795979584
:100C30008795FA95D1F730E020E0B901EAE94E9FB7
:100C4000040E611D5E9F600D711D1124650F711DE5
:100C5000860F971FA11DB11D893E43E09407A10592
:100C6000B10508F434C0885E9340A109B10942E09F
:100C7000B695A795979587954A95D1F747E0849FB4
:100C8000080E211D949F200D311D1124290F311DA7
:100C900060914D0170E0860F971F820F931F409166
:100CA0004C0850914D0860914E0870914F08292FC3
:100CB0003327420F531F611D711D40934C08509301
:100CC0004D0860934E0870934F0880934D017894BF
:100CD0000E942D01F201708B6787DF91CF911F91E8
:100CE0000F91FF90EF90DF90CF90BF90AF909F90CB
:100CF0008F907F905F904F900895539A08956F92D0
:100D00007F928F92CF92DF92EF92FF920F931F9379
:100D1000CF93DF93CDB7DEB762970FB6F894DEBFFF
:100D20000FBECDBF6C017A013801822EDC011C960A
:100D30002C91CA0157FF04C088279927841B950B63
:100D40007A8369839C838B839E838D836D867E8665
:100D50008F86213049F5CE0101960E94A20383E0DF
:100D6000888B1A8A198AF7FE02C08DEF888BD6010C
:100D7000ED91FC910484F585E02DBE016F5F7F4FFE
:100D8000C601099562960FB6F894DEBF0FBECDBFBF
:100D9000DF91CF911F910F91FF90EF90DF90CF9057
:100DA0008F907F906F9008951C861B861A861986F7
:100DB00018861F82D4CFEF92FF920F931F93CF9389
:100DC000DF93CDB7DEB762970FB6F894DEBF0FBEE4
:100DD000CDBF7C01DC011C968C917A8369835C8396
:100DE0004B835E834D830D871E872F878130F9F4F7
:100DF000CE0101960E94A203188A1A8A198AD70185
:100E0000ED91FC910484F585E02DBE016F5F7F4F6D
:100E1000C701099562960FB6F894DEBF0FBECDBF2D
:100E2000DF91CF911F910F91FF90EF9008951C8655
:100E30001B861A86198618861F82DECF4F925F9214
:100E40007F928F929F92AF92BF92CF92DF92EF925A
:100E5000FF920F931F93CF93DF932C01EB010E941E
:100E60002D01F20127853089621B730B6A307105F1
:100E7000B0F3F8948A819B81181619060CF0CDC145
:100E8000E881F9816BB1862E689483F83BB1377F96
:100E90003BB9D9848E812D2D281B822F2E834F851F
:100EA000042E000C550BAA81BB817C85FD84EE8449
:100EB0007F5FF394E3949F819884BA84AB8410811C
:100EC000C12C6C2D0C2D2C2D2081112788942111E3
:100ED000280F08F42FEF8195889470FD120F179555
:100EE000889471FD120F1795889472FD120F179553
:100EF000889473FD120F1795889474FD120F17953F
:100F0000889475FD120F1795889476FD120F17952A
:100F1000889477FD120F17958894622F7111612FB5
:100F20008D0D162F002C8BB800C000C017FF3BB9E9
:100F300021816627889400C0002C3BB92111290F1C
:100F400000C0002C8BB800C000C016FF3BB908F4ED
:100F50002FEF9195889400C0002C3BB9F0FC620FF4
:100F600000C0002C8BB800C000C015FF3BB96795CE
:100F70008894F1FC620F00C0002C3BB967958894FF
:100F800000C0002C8BB800C000C014FF3BB9F2FCBD
:100F9000620F6795889400C0002C3BB9F3FC620F88
:100FA00000C0002C8BB800C000C013FF3BB9679590
:100FB0008894F4FC620F00C0002C3BB967958894BC
:100FC00000C0002C8BB800C000C012FF3BB9F5FC7C
:100FD000620F6795889400C0002C3BB9F6FC620F45
:100FE00000C0002C8BB800C000C011FF3BB9679552
:100FF0008894F7FC620F00C0002C3BB96795889479
:1010000000C0002C8BB800C000C010FF3BB9122FED
:10101000F110162F9B0D00C0002C3BB900C000C082
:10102000002C8BB800C000C017FF3BB92281662797
:10103000889400C0002C3BB92111290D00C0002C60
:101040008BB800C000C016FF3BB908F42FEFE40FC7
:10105000F51F00C0002C3BB9E0FC620F00C0002C63
:101060008BB800C000C015FF3BB967958894E1FCC0
:10107000620F00C0002C3BB96795889400C0002C1B
:101080008BB800C000C014FF3BB9E2FC620F67954B
:10109000889400C0002C3BB9E3FC620F00C0002C18
:1010A0008BB800C000C013FF3BB967958894E4FC7F
:1010B000620F00C0002C3BB96795889400C0002CDB
:1010C0008BB800C000C012FF3BB9E5FC620F67950A
:1010D000889400C0002C3BB9E6FC620F00C0002CD5
:1010E0008BB800C000C011FF3BB967958894E7FC3E
:1010F000620F00C0002C3BB96795889400C0002C9B
:101100008BB800C000C010FF3BB9122FE110162FA2
:10111000919400C0002C3BB99A0C00C000C08BB861
:1011200000C000C017FF3BB920816627889400C02B
:10113000002C3BB92111280F00C0002C8BB800C037
:1011400000C016FF3BB908F42FEF8195889400C0CA
:10115000002C3BB970FD620F00C0002C8BB800C0A2
:1011600000C015FF3BB96795889471FD620F00C000
:10117000002C3BB96795889400C0002C8BB800C048
:1011800000C014FF3BB972FD620F6795889400C0E0
:10119000002C3BB973FD620F00C0002C8BB800C05F
:1011A00000C013FF3BB96795889474FD620F00C0BF
:1011B000002C3BB96795889400C0002C8BB800C008
:1011C00000C012FF3BB975FD620F6795889400C09F
:1011D000002C3BB976FD620F00C0002C8BB800C01C
:1011E00000C011FF3BB96795889477FD620F00C07E
:1011F000002C3BB96795889400C0002C8BB800C0C8
:1012000000C010FF3BB9122F7111162F8D0D00C0B9
:10121000002C3BB9119709F086CE4A815B8120EE04
:1012200031E0DA010E945F0FDC01CB01F4E0B695FA
:10123000A79597958795FA95D1F730E020E0B90109
:10124000EAE94E9F040E611D5E9F600D711D112421
:10125000650F711D860F971FA11DB11D893E43E0CB
:101260009407A105B10508F434C0885E9340A10934
:10127000B10942E0B695A795979587954A95D1F71C
:1012800047E0849F080E211D949F200D311D1124DD
:10129000290F311D60914D0170E0860F971F820F5D
:1012A000931F40914C0850914D0860914E087091E9
:1012B0004F08292F3327420F531F611D711D409383
:1012C0004C0850934D0860934E0870934F088093DC
:1012D0004D0178940E942D01F201708B6787DF9198
:1012E000CF911F910F91FF90EF90DF90CF90BF9023
:1012F000AF909F908F907F905F904F9008956F92E6
:101300007F928F92CF92DF92EF92FF920F931F9373
:10131000CF93DF93CDB7DEB762970FB6F894DEBFF9
:101320000FBECDBF6C017A013801822EDC011C9604
:101330002C91CA0157FF04C088279927841B950B5D
:101340007A8369839C838B839E838D836D867E865F
:101350008F86213049F5CE0101960E94DF0383E09C
:10136000888B1A8A198AF7FE02C08DEF888BD60106
:10137000ED91FC910484F585E02DBE016F5F7F4FF8
:10138000C601099562960FB6F894DEBF0FBECDBFB9
:10139000DF91CF911F910F91FF90EF90DF90CF9051
:1013A0008F907F906F9008951C861B861A861986F1
:1013B00018861F82D4CFEF92FF920F931F93CF9383
:1013C000DF93CDB7DEB762970FB6F894DEBF0FBEDE
:1013D000CDBF7C01DC011C968C917A8369835C8390
:1013E0004B835E834D830D871E872F878130F9F4F1
:1013F000CE0101960E94DF03188A1A8A198AD70142
:10140000ED91FC910484F585E02DBE016F5F7F4F67
:10141000C701099562960FB6F894DEBF0FBECDBF27
:10142000DF91CF911F910F91FF90EF9008951C864F
:101430001B861A86198618861F82DECF6F927F92CE
:101440008F92EF92FF920F931F93CF93DF9300D071
:101450001F92CDB7DEB73B01882E07EF11E0F12CCC
:10146000E12C8091000190910101E816F90670F4D9
:1014700069827A828B82B801CE0101960E9478023D
:101480008FEFE81AF80A0D5F1F4FEBCF80915C08D1
:101490000E9452010F900F900F90DF91CF911F91FA
:1014A0000F91FF90EF908F907F906F90089590E054
:1014B00080E00895FC018585968508950F931F931C
:1014C000CF93DF9300D01F92CDB7DEB7AB01198267
:1014D0001A821B82DC01ED91FC910190F081E02DDC
:1014E00000E010E020E0BE016F5F7F4F09950F9094
:1014F0000F900F90DF91CF911F910F910895FC01F4
:1015000086E091E091838083138212828FEF86833D
:101510008783808781878287838781E08487168697
:101520001586158214828091560890915708892B50
:1015300021F4F0935708E0935608A0914801B09128
:101540004901109721F01596FC93EE931497F093B0
:101550004901E09348010895DF92EF92FF920F93C3
:101560001F93CF93DF9300D000D000D0CDB7DEB76C
:10157000109228088230E1F180F4813051F12696F2
:101580000FB6F894DEBF0FBECDBFDF91CF911F9194
:101590000F91FF90EF90DF900895843009F44EC0D2
:1015A000853069F70E949500F82E0E94950000E0B2
:1015B0001F2D080F191F0F3F100709F087C00E9449
:1015C0009500082F0E949500182F0E949500B801E1
:1015D00067C00E9495008133910540F08F3F9105CF
:1015E00071F680915C080E945201C9CF85B9C7CFBE
:1015F0000E949500182F0E94950060E0712F860FC1
:10160000971F20914A0130914B0140914C012C834E
:101610003D834E8320910001309101018217930791
:1016200008F0ADCFBC01660F771F680F791F6950B6
:101630007E4FCE0104960E947802A1CF0E949500B1
:101640008E3F09F09CCF0E9495007C010E9495007E
:10165000D82E0E94950000E01D2D080F191FFF24B1
:1016600081E0E816F104F9F0EFEFEE16F10451F124
:10167000EF2809F084CF90E080E00E94EB0E801705
:10168000910709F47CCF0E30F2E01F0708F077CF06
:10169000B80190E080E00E94F10E60E07FEF80E012
:1016A0000E941E0A6CCF82E090E00E94EB0E801731
:1016B000910709F464CFB80182E090E00E94F10E36
:1016C00061E4ECCFF0E0E0E0099559CF0E9495008D
:1016D000E82E0E949500F82E0E949500E0924A01A3
:1016E000F0924B0180934C0180914A0190914B0103
:1016F000A0914C0189839A83AB83809100019091E2
:1017000001010817190708F03ACFB801660F771FD3
:10171000600F711F69507E4FCE0101968CCFCF9321
:10172000DF9390E080E00E94EB0EEC01109228081D
:1017300065E589E698E00E9489038D2F90E00E947C
:101740009A03CE0199270E949A0382E090E00E94BA
:10175000EB0EEC018D2F90E00E949A03CE019927A9
:10176000DF91CF910C949A030E949A0FCF93DF934D
:1017700085ED8093BC008091520190915301A0911E
:101780005401B09155010796A11DB11D23E0B695F6
:10179000A795979587952A95D1F72091BC0024FDB0
:1017A00003C010929A0136C04091520150915301EA
:1017B0006091540170915501452B462B472B69F3DD
:1017C0000097A105B10541F02AE22A95F1F700C082
:1017D0000197A109B109E1CF8091510191E0909366
:1017E00050018823B9F0C091B800D091BA0080911F
:1017F000BC008A7B8093BC0060E082E10E94E10033
:1018000060E083E10E94E1000E944903D093BA00A6
:10181000C093B800DF91CF9108951F920F920FB639
:101820000F9211242F933F938F939F93AF93BF9366
:1018300080914C0890914D08A0914E08B0914F08AE
:101840003091C00123E0230F2D3758F50196A11DDB
:10185000B11D2093C00180934C0890934D08A09334
:101860004E08B0934F088091C1019091C201A091A0
:10187000C301B091C4010196A11DB11D8093C101A6
:101880009093C201A093C301B093C401BF91AF91E3
:101890009F918F913F912F910F900FBE0F901F90AE
:1018A000189526E8230F0296A11DB11DD2CF1F92D5
:1018B0000F920FB60F9211242F933F934F935F9384
:1018C0006F937F938F939F93AF93BF93EF93FF9308
:1018D0008091B900887F803609F44AC0F0F58832DB
:1018E00009F4A7C018F5803109F49BC0B8F4882327
:1018F00009F4F9C0883009F494C0FF91EF91BF91C9
:10190000AF919F918F917F916F915F914F913F9197
:101910002F910F900FBE0F901F901895883109F4EA
:1019200088C0803251F78093990114C0803409F443
:101930009DC040F48033B9F38833F9F68093990160
:1019400085ECB0C0803509F485C0883509F496C0AF
:10195000883499F60E94B60BD0CF883909F48CC030
:1019600038F5883729F050F4883611F0803729F699
:1019700083E080939A011092980157C0883809F447
:101980007BC0803919F0803809F0B7CF8091980179
:10199000803208F071C0E091980181E08E0F809351
:1019A00098018091BB00F0E0E858FE4F80833DC075
:1019B000803B39F0E0F4803A09F479C0883A09F0C4
:1019C0009CCF84E080939A01109277011092760167
:1019D000E0912008F091210809958091760181110C
:1019E0000FC081E0809376011092560109C0803CBF
:1019F00009F4A6CF883C09F4A3CF883B09F07DCF3A
:101A0000E091770181E08E0F80937701F0E0EA5A50
:101A1000FE4F80818093BB00909177018091760189
:101A200029C08091BF018093BB0085EC8093BC00EE
:101A300064CF9091BE018091BD01981758F5E09157
:101A4000BE0181E08E0F8093BE01F0E0E356FE4FB1
:101A50008081E9CFE091BE0181E08E0F8093BE01CD
:101A60008091BB00F0E0E356FE4F80839091BE0171
:101A70008091BD019817C8F285E8D8CFE091BE01EA
:101A800081E08E0F8093BE018091BB00F0E0E356B1
:101A9000FE4F808380919C0181115CCF81E0809317
:101AA0009B0184EA8093BC0010929A0126CF85ECBA
:101AB0008093BC0010929A0180919801803230F49A
:101AC000E0919801F0E0E858FE4F10826091980193
:101AD00070E0E0911E08F0911F0888E791E00995F9
:101AE000109298010ACF1092990134CFECE5F8E0FA
:101AF0008FEF808312821182148613868FEF9FEFFF
:101B0000DC0187839087A187B287E9E6F8E013823A
:101B1000128288EE93E0A0E0B0E084839583A683F0
:101B2000B7838AE391E0918380830895789484B5A4
:101B3000826084BD84B5816084BD85B5826085BDC9
:101B400085B5816085BD80916E00816080936E0057
:101B50001092810080918100826080938100809149
:101B600081008160809381008091800081608093FA
:101B700080008091B10084608093B1008091B000BA
:101B800081608093B00080917A00846080937A00B5
:101B900080917A00826080937A0080917A008160DF
:101BA00080937A0080917A00806880937A00109206
:101BB000C10090E080E00E94EB0E892B61F468E0A8
:101BC00070E090E080E00E94F10E62E470E082E05C
:101BD00090E00E94F10E90E080E00E94EB0E909366
:101BE0000101809300018E30924030F08DE092E050
:101BF000909301018093000182E090E00E94EB0E3F
:101C0000C0910001D091010186369105B1F5809116
:101C1000D601811111C085EC91E00E947F0A1092DB
:101C2000D5011092D40186E191E09093C601809392
:101C3000C50181E08093D60185EC91E00E947D068C
:101C400087EF91E09093C8018093C701D093D301AF
:101C5000C093D20180915F0890916008A0916108C3
:101C6000B0916208843CE9E09E07A105B105B0F59A
:101C700084EC99E0A0E0B0E031C08091EF018111E7
:101C800011C08EED91E00E947F0A1092EE01109239
:101C9000ED0188E291E09093DF018093DE0181E025
:101CA0008093EF018EED91E00E947D0687EF91E039
:101CB0009093E1018093E001D093EC01C093EB019C
:101CC00080915F0890916008A0916108B0916208CE
:101CD000843CF9E09F07A105B10550F280935F08AD
:101CE00090936008A0936108B093620860E070E090
:101CF00080E00E941E0A60E070E080E00E941E0A00
:101D00008FE384B910924B0810924A08109223086E
:101D1000109222080E94490388EA90E090932108DB
:101D20008093200884EB90E090931F0880931E0816
:101D300080E38093BA008CE08093B8008CEA9AE04C
:101D400090932508809324088FE89BE090932708C0
:101D5000809326081092280810E000E0C0E0D0E050
:101D6000609129086C5E609329087FEF8FEF0E94D5
:101D70001E0A0E942D014B015C0184E6C82ED12C65
:101D8000E12CF12C0E942D01681979098A099B091F
:101D9000683E734081059105A8F321E0C21AD1087D
:101DA000E108F10888EE880E83E0981EA11CB11CA2
:101DB000C114D104E104F10429F7809128088F5F50
:101DC00080932808833310F0F8010995209741F299
:101DD0000E940000C5CFA8E1B0E042E050E00C94C2
:101DE000F90E0196272F0E94080F0C94070FDC01B3
:101DF000CB01FC01F999FECF06C0F2BDE1BDF89A16
:101E0000319600B40D9241505040B8F70895262FF6
:101E1000F999FECF92BD81BDF89A019700B40216E0
:101E200039F01FBA20BD0FB6F894FA9AF99A0FBE8E
:101E30000895DB018F939F930E94660FBF91AF912E
:101E4000A29F800D911DA39F900DB29F900D112414
:101E5000089597FB072E16F4009407D077FD09D05C
:101E60000E94710F07FC05D03EF4909581959F4F1D
:101E70000895709561957F4F0895A1E21A2EAA1BCF
:101E8000BB1BFD010DC0AA1FBB1FEE1FFF1FA2172A
:101E9000B307E407F50720F0A21BB30BE40BF50B27
:101EA000661F771F881F991F1A9469F760957095B0
:101EB000809590959B01AC01BD01CF0108950E94D2
:101EC0008B0FB7FF0895821B930B08950E948B0F11
:101ED000A59F900DB49F900DA49F800D911D11247E
:101EE0000895AA1BBB1B51E107C0AA1FBB1FA61761
:101EF000B70710F0A61BB70B881F991F5A95A9F7B3
:101F000080959095BC01CD010895EE0FFF1F0590BF
:101F1000F491E02D0994A29FB001B39FC001A39F4B
:101F2000700D811D1124911DB29F700D811D112412
:101F3000911D089581E090E0F8940C949F0FF8941F
:101F4000FFCF0D0200000000B40BB40BB40B5E0A0F
:101F50005A0A570A00000000DB067F067D065E0A6B
:101F60005A0ADE001C0400000000DB097F097D0620
:101F70005E0A5A0ADE001E070000000089037E0385
:0A1F80009F036703770382006803E4
:107800000C94343C0C94513C0C94513C0C94513CE1
:107810000C94513C0C94513C0C94513C0C94513CB4
:107820000C94513C0C94513C0C94513C0C94513CA4
:107830000C94513C0C94513C0C94513C0C94513C94
:107840000C94513C0C94513C0C94513C0C94513C84
:107850000C94513C0C94513C0C94513C0C94513C74
:107860000C94513C0C94513C11241FBECFEFD8E036
:10787000DEBFCDBF11E0A0E0B1E0ECE9FFE702C060
:1078800005900D92A230B107D9F712E0A2E0B1E065
:1078900001C01D92AD30B107E1F70E942D3D0C945F
:1078A000CC3F0C94003C982F959595959595959582
:1078B000905D8F708A307CF0282F295A8091C0000B
:1078C00085FFFCCF9093C6008091C00085FFFCCF60
:1078D0002093C6000895282F205DF0CF982F809127
:1078E000C00085FFFCCF9093C6000895EF92FF92F1
:1078F0000F931F93EE24FF2487018091C00087FD22
:1079000017C00894E11CF11C011D111D81E4E8164B
:1079100082E4F8068FE0080780E0180770F3E09132
:107920000401F091050109958091C00087FFE9CF1E
:107930008091C6001F910F91FF90EF9008950E94D3
:10794000763C982F8091C00085FFFCCF9093C600B5
:1079500091362CF490330CF09053892F089597555D
:10796000892F08951F930E949F3C182F0E949F3CCF
:107970001295107F810F1F9108951F93182F882350
:1079800021F00E94763C1150E1F71F9108951F935A
:10799000182F0E94763C803249F0809103018F5F5E
:1079A000809303018530C1F01F9108958091C0003C
:1079B00085FFFCCF84E18093C6008091C00085FFE5
:1079C000FCCF1093C6008091C00085FFFCCF80E102
:1079D0008093C6001F910895E0910401F091050184
:1079E00009951F9108950E94763C803241F0809164
:1079F00003018F5F80930301853081F008958091AA
:107A0000C00085FFFCCF84E18093C6008091C00058
:107A100085FFFCCF80E18093C6000895E0910401CA
:107A2000F09105010995089540E951E08823A1F0FE
:107A30002D9A28EE33E0FA013197F1F721503040CA
:107A4000D1F72D9828EE33E0FA013197F1F7215064
:107A50003040D1F7815061F708953F924F925F9285
:107A60006F927F928F929F92AF92BF92CF92DF924E
:107A7000EF92FF920F931F93CF93DF93000080E16B
:107A80008093C4001092C50088E18093C10086E015
:107A90008093C2005098589A259A81E00E94143D24
:107AA00024E1F22E9EE1E92E85E9D82E0FE0C02ECA
:107AB00010E1B12EAA24A394B1E49B2EA6E58A2E50
:107AC000F2E57F2EE0E26E2E79E4572E63E5462E36
:107AD00050E5352E0E94763C8033B1F18133B9F107
:107AE000803409F46FC0813409F476C0823409F41B
:107AF00085C0853409F488C0803531F1823521F1A3
:107B0000813511F1853509F485C0863509F48DC0BC
:107B1000843609F496C0843709F403C1853709F423
:107B200072C1863709F466C0809103018F5F80932C
:107B30000301853079F6E0910401F0910501099582
:107B40000E94763C803351F60E94F33CC3CF0E94E2
:107B5000763C803249F78091C00085FFFCCFF092DF
:107B6000C6008091C00085FFFCCF9092C600809136
:107B7000C00085FFFCCF8092C6008091C00085FFC9
:107B8000FCCF7092C6008091C00085FFFCCF609250
:107B9000C6008091C00085FFFCCF5092C600809146
:107BA000C00085FFFCCF4092C6008091C00085FFD9
:107BB000FCCF3092C6008091C00085FFFCCFB09210
:107BC000C60088CF0E94763C863808F4BDCF0E945C
:107BD000763C0E94F33C7ECF0E94763C803809F4CC
:107BE0009CC0813809F40BC1823809F43CC1883942
:107BF00009F48FC080E00E94C73C6CCF84E10E94F2
:107C0000BD3C0E94F33C66CF85E00E94BD3C0E94D3
:107C1000F33C60CF0E94763C809306010E94763C44
:107C2000809307010E94F33C55CF0E94763C80333D
:107C300009F41DC183E00E94BD3C80E00E94C73C66
:107C400049CF0E94763C809309020E94763C809343
:107C5000080280910C028E7F80930C020E94763C79
:107C6000853409F415C18091080290910902892B8D
:107C700089F000E010E00E94763CF801E85FFE4FDA
:107C800080830F5F1F4F80910802909109020817AF
:107C9000190788F30E94763C803209F045CF809125
:107CA0000C0280FF01C16091060170910701660F0F
:107CB000771F7093070160930601A0910802B091AD
:107CC00009021097C9F0E8E0F1E09B01AD014E0F09
:107CD0005F1FF999FECF32BD21BD819180BDFA9A17
:107CE000F99A2F5F3F4FE417F50799F76A0F7B1F4B
:107CF00070930701609306018091C00085FFFCCF5F
:107D0000F092C6008091C00085FFFCCFB092C60003
:107D1000E1CE83E00E94C73CDDCE82E00E94C73CFA
:107D2000D9CE0E94763C809309020E94763C8093D3
:107D300008028091060190910701880F991F909386
:107D40000701809306010E94763C853409F4A6C0A1
:107D500080910C028E7F80930C020E94763C8032D0
:107D600009F0B8CE8091C00085FFFCCFF092C6002C
:107D7000609108027091090261157105B9F140E046
:107D800050E080910C02A82FA170B82FB27011C0E2
:107D9000BB2309F45CC0E0910601F0910701319624
:107DA000F0930701E09306014F5F5F4F46175707B7
:107DB000E8F4AA2369F3F999FECF209106013091E6
:107DC000070132BD21BDF89A90B58091C00085FFB2
:107DD000FCCF9093C6002F5F3F4F30930701209355
:107DE00006014F5F5F4F4617570718F38091C00099
:107DF00085FDE5CE8091C00085FFF8CFE0CE81E023
:107E00000E94C73C67CE0E94763C803209F08CCE3F
:107E10008091C00085FFFCCFF092C6008091C00029
:107E200085FFFCCFE092C6008091C00085FFFCCFAB
:107E3000D092C6008091C00085FFFCCFC092C600E2
:107E40008091C00085FFFCCFB092C60043CEE09188
:107E50000601F091070194918091C00085FFFCCF4D
:107E60009093C6009CCF80E10E94C73C33CE0E9415
:107E7000763C0E94763C182F0E94763C112309F430
:107E800083C0113009F484C08FE00E94C73C22CE29
:107E900080910C02816080930C02E5CE80910C02EF
:107EA000816080930C0259CF809107018823880F4D
:107EB000880B8A2180930B02809106019091070123
:107EC000880F991F90930701809306018091080203
:107ED00080FF09C080910802909109020196909359
:107EE000090280930802F894F999FECF1127E091D6
:107EF0000601F0910701C8E0D1E08091080290915D
:107F00000902103091F40091570001700130D9F34B
:107F100003E000935700E89500915700017001308D
:107F2000D9F301E100935700E89509901990009169
:107F3000570001700130D9F301E000935700E89534
:107F40001395103498F011270091570001700130FB
:107F5000D9F305E000935700E895009157000170B0
:107F60000130D9F301E100935700E895329602976A
:107F700009F0C7CF103011F00296E5CF112480919F
:107F8000C00085FFB9CEBCCE8EE10E94C73CA2CD19
:0E7F900085E90E94C73C9ECDF894FFCF80008B
:00000001FF
